:08000E0002320000023800007C
:03000B000217A039
:1017A000C0E0758CE5758AF5D2010530E530700230
:0517B000052FD0E0321E
:1007E8005389F0438901538EF7758CE5758AF5D2E4
:0607F800A9D2AFD28C2251
:03001B000216A327
:1016A300C0E0C0F0C083C082C0D075D000C000C00D
:1016B30001C002C003C004C005C006C007758DFE8B
:1016C300758BF5121000D007D006D005D004D003D7
:1016D300D002D001D000D0D0D082D083D0F0D0E0DF
:0116E30032D4
:10178A0053890F438910538EEF758DFE758BF5D2F1
:06179A00ABD2AFD28E229B
:10059800A2AF9208C2AF75C7AA75C755439F01A2FB
:1005A8000892AF75AF0475A60DE4F5A7A2AF92083F
:1005B800C2AF75C7AA75C75543A401A20892AF85F3
:1005C800AE0AE50A54F0F50B64807077530A0F758C
:1005D800A60CF5A7A2AF9208C2AF75C7AA75C755F2
:1005E80043A401A20892AF85AE09E50975F010A4ED
:1005F8007C00250AFDEC35F0FCE412038A8F0F8E8F
:100608000E8D0D8C0CE4FFFE7D407C40AB0FAA0ED6
:10061800A90DA80C120166E4FBFA79807840120251
:100628006F8F138E128D118C10E4FFFE7D047CC237
:10063800AB13AA12A911A8101200758F378E368D28
:10064800358C34E50B705D530A0F75A60CF5A7A21F
:10065800AF9208C2AF75C7AA75C75543A401A208CF
:1006680092AF85AE09E50975F010A47C00250AFD56
:10067800EC35F0FCE412038A8F0F8E0E8D0D8C0C76
:10068800E4FFFE7D407C40AB0FAA0EA90DA80C121A
:100698000166E4FBFA7980784012026F8F378E3654
:1006A8008D358C34E50B6490707875A60EF5A7A28D
:1006B800AF9208C2AF75C7AA75C75543A401A2086F
:1006C80092AF85AE0975A60FF5A7A2AF9208C2AF83
:1006D80075C7AA75C75543A401A20892AF85AE0A8B
:1006E800530A0FE50975F010A47C00250AFDEC35C6
:1006F800F0FCE412038A8F0F8E0E8D0D8C0CE4FF34
:10070800FE7D407C40AB0FAA0EA90DA80C12016615
:10071800E4FBFA7980784012026F8F378E368D3578
:100728008C34A2AF9208C2AF75C7AA75C755539F3C
:10073800FEA20892AF43E80853E8F843E101E4F564
:1007480032F533F538F539759502FFFEC2EFD2EE72
:1007580030EFFDC3EF9402EE94004018ADC3ED25D1
:1007680033F533E43532F532ADC2ED2539F539E4E8
:100778003538F5380FBF00010EEF64054E70CDE433
:10078800F595AE32AF33FC7D0312040D8E328F33F4
:10079800AE38AF397C007D0312040D8E388F39E5F1
:1007A80033C4F8540FC868FFE532C454F048FEE576
:1007B800392FFDE5383EFC12038AAB07AA06A905C6
:1007C800A804E4FFFE7D807C4512026FAB37AA3691
:0F07D800A935A8341201668F268E258D248C2317
:0107E70022EF
:1016E400E4FF208620053CE53C7002053BD3949042
:1016F400E53B94014026753B01753C9020031DD2C7
:10170400037F02801720030DD3E53C9414E53B943A
:0C1714000040027F01E4F53BF53CC203FD
:0117200022A6
:10175A00E4FF208512052AE52AD395314021E4F5D4
:10176A002AD2067F02801820060BE52AD394144059
:0F177A00097F0180053006027F04C206E4F52ACC
:01178900223D
:03006B0002001779
:03001700C2DD3215
:100DED00ED700E53DEFDC2DF53B3FD43B402C2916D
:100DFD0022BD640E53DEFDC2DF53B3FD43B402D2F8
:100E0D009122ED64326002C198EFD3940A40027FC3
:100E1D000AEF30E0011FBF0A067A307B808023BFC6
:100E2D0008067A457BC0801ABF06067A617B8080F2
:100E3D0011BF04067AA27B008008EF6402704C7A21
:100E4D00F4FB43DE02538EBF43DF078AD1EBF5D9A6
:100E5D00A2AF9208C2AF75C7AA75C755439101A23B
:100E6D000892AFEAC313FAEB13FB0BBB00010A8A1E
:100E7D00D3EBF5DBA2AF9208C2AF75C7AA75C75504
:0B0E8D005391FEA20892AFD2DED2DF2C
:010E98002237
:10148100EF64047002800CEF640170028005EF6468
:1014910002702143B38053B47FD29743B32053B436
:1014A100DFD29543B31053B4EFD29443B30853B48E
:1014B100F7D29322EF6403702053B3DF43B420D2F9
:1014C1009543B31053B4EFD29443B30853B4F7D256
:0A14D1009353B37F43B480C2972207
:10121400EF6404702153B37F43B480D29753B3DF98
:1012240043B420D29553B3EF43B410D29453B3F7DD
:1012340043B408D29322EF6401700853B37F43B4DC
:1012440080800BEF6402701843B38053B47FD2974D
:1012540053B3DF43B420D29543B31053B4EF801B90
:10126400EF6403702053B37F43B480C29753B3DF5A
:1012740043B420D29553B3EF43B410D29443B3088C
:0612840053B4F7D29322DF
:1012F300EF6404700A53B37F43B480D2978040EF06
:101303006401700853B37F43B480800BEF640270B1
:101313002143B38053B47FD29753B3DF43B420D276
:101323009543B31053B4EFD29443B30853B4F7D2F5
:101333009322EF6403702053B37F43B480C2975367
:10134300B3DF43B420D29553B3EF43B410D29453D5
:08135300B3F743B408D2932262
:10109100EF6404700A53B37F43B480D2978059EF51
:1010A1006401702153B37F43B480D29743B310538B
:1010B100B4EFD29443B30853B4F7D29353B3DF439D
:1010C100B420C29522EF6402702143B38053B47FF0
:1010D100D29753B3DF43B420D29543B31053B4EF47
:1010E100D29443B30853B4F7D29322EF6403702030
:1010F10053B37F43B480C29753B3DF43B420D29537
:1011010053B3EF43B410D29453B3F743B408D2931B
:0111110022BB
:10111200EF6404700A53B37F43B480D2978059EFCF
:101122006401702153B37F43B480D29753B37F439A
:10113200B480D29443B30853B4F7D29353B3DF438A
:10114200B420C29522EF6402702143B38053B47F6E
:10115200D29753B3DF43B420D29543B31053B4EFC5
:10116200D29443B30853B4F7D29322EF64037020AE
:1011720053B37F43B480C29753B3DF43B420D295B5
:1011820053B3EF43B410D29453B3F743B408D2939A
:01119200223A
:10119300EF6404700A53B37F43B480D2978059EF4E
:1011A3006401702153B37F43B480D29753B3EF43A9
:1011B300B410D29453B3F743B408D29353B3DF4379
:1011C300B420C29522EF6402702143B38053B47FED
:1011D300D29753B3DF43B420D29543B31053B4EF44
:1011E300D29443B30853B4F7D29322EF640370202D
:1011F30053B37F43B480C29753B3DF43B420D29534
:1012030053B3EF43B410D29453B3F743B408D29318
:0112130022B8
:100B8600EF6404703943B38053B47F53B3DF53B477
:100B9600DF43B31053B4EF43B30853B4F753B37FF3
:100BA60043B480C29753B3EF43B410D295D2945353
:100BB600B3F743B408D29353B3DF43B42022EF64B0
:100BC600017043D29743B38053B47F43B32053B4E9
:100BD600DF43B31053B4EF43B30853B4F743B31032
:100BE60053B4EFD29453B37F43B480D29753B3DF59
:100BF60043B420C29553B3EF43B410D29453B3F722
:100C060043B408D29322EF64027035D29543B38081
:100C160053B47F43B32053B4DF53B3EF53B4EF431E
:100C2600B30853B4F743B32053B4DFC295C2944319
:100C3600B30853B4F7C29353B37F43B480D2972219
:100C4600EF6403703AC29743B38053B47F43B32033
:100C560053B4DF43B31053B4EF43B30853B4F7535D
:100C6600B37F43B480C29753B3DF43B420C29553D6
:100C7600B3EF43B410C29453B3F743B408C29322FC
:100D3C0043B38053B47F43B32053B4DF43B3105356
:100D4C00B4EF43B30853B4F7EF6404701253B37F9A
:100D5C0043B480C29753B3DF43B420D295801DEFC8
:100D6C006401702943B31053B4EFD29453B37F434F
:100D7C00B480D29753B3DF43B420C29553B3EF433F
:100D8C00B410D29453B3F743B408D29322EF640255
:100D9C00702943B31053B4EFD29453B37F43B48050
:100DAC00D29743B32053B4DFC29553B3EF43B4107F
:100DBC00C29443B30853B4F7C29322EF6403702078
:100DCC0043B38053B47FD29753B3DF43B420D2954F
:100DDC0053B3EF43B410C29453B3F743B408C29364
:010DEC0022E4
:100F450043B38053B47F43B32053B4DF43B310534B
:100F5500B4EF43B30853B4F7EF6404701253B37F8F
:100F650043B480C29753B3DF43B420D295801DEFBD
:100F75006401702243B31053B4EFD29453B37F434B
:100F8500B480D29753B3DF43B420C29553B3EF4334
:100F9500B410D294804BEF6402702943B31053B45C
:100FA500EFD29453B37F43B480D29743B32053B465
:100FB500DFC29553B3EF43B410C29443B30853B49F
:100FC500F7C29322EF6403702043B38053B47FD2FA
:100FD5009753B3DF43B420D29553B3EF43B410C254
:0A0FE5009453B3F743B408D29322EB
:100C860053B37F53B47F53B3DF53B4DF53B3EF5340
:100C9600B4EF53B3F753B4F7EF6404702CC2975311
:100CA600B3F743B408C29343B32053B4DFC29543AA
:100CB600B31053B4EFC29453B37F43B480D2975367
:100CC600B3DF43B420C295805CEF6401701CC29709
:100CD60053B37F43B480D29753B3DF43B420D29546
:100CE60053B3EF43B410C2948043EF6402702153B0
:100CF600B37F43B480D29753B3DF43B420D2954336
:100D0600B31053B4EFD29453B3F743B408C293224B
:100D1600EF6403702053B37F43B480C29753B3DFAD
:100D260043B420D29553B3EF43B410D29453B3F7E0
:060D360043B408D2932231
:10100000E527700AC295C294C293C2978076E527FD
:10101000B40107AF2E121481806AE527B40207AF2E
:101020002E121214805EE527B40307AF2E1212F3BE
:101030008052E527B40407AF2E1210918046E527B1
:10104000B40507AF2E121112803AE527B40607AF98
:101050002E121193802EE527B40707AF2E120B86B0
:101060008022E527B40807AF2E120D3C8016E52735
:10107000B40907AF2E120F45800AE527B40A05AF61
:101080002E120C86052EE52ED394044003752E01F6
:01109000223D
:100A4200759504C2EFD2EE30EFFDE4F595AFC3EF3A
:100A520075F010A4ADC27C002DFDEC35F0FCE41263
:100A6200038A8F0C8E0B8D0A8C09E4FBFA7980784D
:100A72004512026FAB26AA25A924A8231201668F6C
:100A82000C8E0B8D0A8C09E4FFFE7D967C44AB0C28
:100A9200AA0BA90AA80912030C600540037F0A22C7
:100AA200E4FFFE7D8C7C44AB0CAA0BA90AA80912B8
:100AB200030C600540037F0922E4FFFE7D827C4433
:100AC200AB0CAA0BA90AA80912030C600540037F0C
:100AD2000822E4FFFE7D667C44AB0CAA0BA90AA89F
:100AE2000912030C600540037F0722E4FFFE7D52DA
:100AF2007C44AB0CAA0BA90AA80912030C6005409E
:100B0200037F0622E4FFFE7D397C44AB0CAA0BA9CD
:100B12000AA80912030C600540037F0522E4FFFEC8
:100B22007D207C44AB0CAA0BA90AA80912030C6015
:100B32000540037F0422E4FFFE7D077C44AB0CAA40
:100B42000BA90AA80912030C600540037F0322E4E3
:100B5200FFFE7DF07C43AB0CAA0BA90AA809120385
:100B62000C600540037F0222E4FFFE7DA07C42ABC5
:100B72000CAA0BA90AA80912030C600540037F0105
:030B8200227F00CF
:010B8500224D
:10157600EF700C53DEFE53B3FB43B404C292224316
:10158600DE01538EBF75D11975D909A2AF9208C273
:10159600AF75C7AA75C755439101A20892AF75D218
:1015A6001275DA04A2AF9208C2AF75C7AA75C755FD
:0C15B6005391FEA20892AFD2DED2DF22D9
:1014220075270A752E0153B1FE43B201D28053B122
:10143200FD43B202D28153B3FE43B401C29053B30F
:10144200FB43B404C29253B3FD43B402D291E4F518
:101452002FF530C3E5309464E52F940040F553B185
:10146200FD43B202C28153B3FE43B401D29053B3DF
:0F147200FB43B404C292C291E4F527752E012208
:1013BF00EF30E02E200415D204E52BD394004052D9
:1013CF0053B3FE43B401C290E4FF8013C204E52B74
:1013DF00D39400403D53B3FE43B401D2907F01023A
:1013EF001576EF30E12C200014D20053B1FD43B23B
:1013FF0002D28153B1FE43B201C2808012C20053A8
:10140F00B1FD43B202C28153B1FE43B201D280E4B7
:03141F00F53A2279
:10080000E4F5B1F5B2F5B3F5B4F5ACF5ADF52FF50A
:10081000301207E812178A53B3F743B40853B3EF03
:1008200043B41053B3DF43B42053B37F43B480F5D4
:1008300008F52FF53012059853E8F043E80243B16C
:100840008053B27FE4F5F643F60443E1011214222B
:1008500053B1BF53B2BFD28653B1DF53B2DFD2859B
:1008600043AC0153ADFEC200C203C204C205C206BE
:10087000E4F529C202F527752E01F52BF53AF52886
:100880007531C8F52CF52D3001FDC2011216E48F2B
:10089000081213BF12175A8F08E5086401703B2035
:1008A0000528D205E5297007752901C2028011E5E6
:1008B0002930E70C540FFF74648FF084F528D202BE
:1008C00053B3FD43B402D2912172C291C205E5290E
:1008D000640160022172F5292172E5086402707DCD
:1008E0002005022172E529B4010C752980C202C2DB
:1008F00091753164807CE529548FFFBF800575298F
:1009000082802CBF82057529838013E529548FFFCF
:10091000BF83057529858017BF8509752987D2058D
:10092000D2028026E529548FFFBF871275298AD20B
:1009300005D202E529540FFE74648EF08015EF6431
:100940008A702F752901D205C202E529540FFF7460
:10095000648FF084F528D2917531C88015E508B40C
:100960000410E529B4800BE4F529C202C291F528F0
:10097000C20530052130021EE528D394004002153F
:1009800028E5287011A291B39291E529540FFF74C4
:10099000648FF084F528200046120A428F08E5088B
:1009A000653A6034E508D3953A4013052CE4F52DFB
:1009B000E52CD394004033053AE4F52C802CE53A3D
:1009C000D395084025052DE4F52CE52DD394004062
:1009D00019153AE4F52D8012E4F52CF52D800B3035
:1009E000B005753A0A8003E4F53AE527653A6006F2
:1009F000752E01853A27E53AC394074024752B14D8
:100A000020071C20040C53B3FE43B401D2907F0195
:100A1000800A53B3FE43B401C290E4FF121576D2AC
:100A200007E52BD3940050020187152BE52B6002BC
:100A3000018753B3FE43B401D290FF121576C2076B
:020A400001872C
:1017210053B1BF53B2BF53B17F53B27F759850438A
:101731008920438780438E1053C4DFAB07AA06A9D3
:1017410005A8047F407E427D0F7C0012047FEF04D8
:09175100F404F58DD28ED2992228
:10128A008F178E168D158C1453B1BF53B2BF53B13D
:10129A007F53B27F75985043878053C4F843C42064
:1012AA00AB17AA16A915A8147F407E427D0F7C00B1
:1012BA0012047FC374FF9FFF74FF9EFEE49DFDE44A
:1012CA009CFC78081205308FC6AB17AA16A915A878
:1012DA00147F407E427D0F7C0012047FC374FF9FFF
:0912EA00FF8FC543C408D299220C
:070003003098FDAF99C2988F
:01000A0022D3
:080FEF00C2998F993099FD228F
:10135B008F1B8E1A8D198C1853B1FB53B2FB53B3E1
:10136B00BF53B4BF75F85075C40853C4DFAB1BAA89
:10137B001AA919A8187F407E427D0F7C0012047FAA
:10138B00C374FF9FFF74FF9EFEE49DFDE49CFC78FD
:10139B00081205308FC6AB1BAA1AA919A8187F40D3
:1013AB007E427D0F7C0012047FC374FF9FFF8FC5AD
:0413BB0043C40822FD
:070FF70030F8FDAF9AC2F8CB
:010FFE0022D0
:0817B500C2F98F9A30F9FD2200
:1015C2008F1F8E1E8D1D8C1C538EF7438901D28C6A
:1015D200E4FFFEFDFCAB1FAA1EA91DA81CC3120539
:1015E2001F6025758A7E758CFF308DFDC28DE51FCB
:1015F20024FFF51FE51E34FFF51EE51D34FFF51D22
:0B160200E51C34FFF51C80C8C28C22E0
:10160D008F408E3F8D3E8C3D538EF7438901D28C9A
:10161D00E4FFFEFDFCAB40AA3FA93EA83DC3120569
:10162D001F6025758ACA758CFA308DFDC28DE54017
:10163D0024FFF540E53F34FFF53FE53E34FFF53E31
:0B164D00E53D34FFF53D80C8C28C2253
:101658008F448E438D428C41538EEF438910D28E36
:10166800E4FFFEFDFCAB44AA43A942A841C312050E
:101678001F6025758BEA758DCB308FFDC28FE544D1
:1016880024FFF544E54334FFF543E54234FFF542D2
:0B169800E54134FFF54180C8C28E22FE
:1014DB008F488E478D468C4553C9BF53C9DF43C9CF
:1014EB0010D2CAE4FFFEFDFCAB48AA47A946A845AB
:1014FB00C312051F602575CC3075CDF830CFFDC2FA
:10150B00CFE54824FFF548E54734FFF547E546347A
:0E151B00FFF546E54534FFF54580C8C2CA22FB
:10001E008F4C8E4B8D4A8C4975C40743C408E4FF40
:10002E00FEFDFCAB4CAA4BA94AA849C312051F60A2
:10003E002875C52C75C6CFE5C430E4FB53C4EFE577
:10004E004C24FFF54CE54B34FFF54BE54A34FFF5F8
:0D005E004AE54934FFF54980C553C4F72237
:101529008F508E4F8D4E8C4D75C40743C408E4FF10
:10153900FEFDFCAB50AA4FA94EA84DC312051F6072
:101549002875C5D875C6FFE5C430E4FB53C4EFE57B
:101559005024FFF550E54F34FFF54FE54E34FFF5C4
:0D1569004EE54D34FFF54D80C553C4F7220B
:03000000020E9954
:100E990075C7AA75C75575FD5A75C7AA75C755751A
:100EA900FDA5787FE4F6D8FD9000007FFF7E03E47E
:0C0EB900F0A3DFFCDEFA758150020F0090
:10006E000203F8E86480F8E933E83360110460F0C5
:10007E00ED33EC337009E8FCE9FDEAFEEBFF2204F8
:10008E0060DED3EB9FEA9EE99DE8C2E78CF0C2F7F3
:10009E0095F0400CE8CCF8E9CDF9EACEFAEBCFFBBF
:1000AE001203C385D0F05804700320D5B3E8047052
:1000BE00075002B2D502040292D5EC0460F7E4CCEC
:1000CE00C0E0C398F8603B94186008400DD0E0FB88
:1000DE000203DAE4FBFAC9FC8028E830E406E4C93E
:1000EE00FBE4CAFCE830E305E4C9CACBFCE85407DC
:1000FE006010F8C3E913F9EA13FAEB13FBEC13FCE7
:10010E00D8F130F52FC3E49CFCEF9BFFEE9AFEED89
:10011E0099FDD0E0FBEF4E4D4C701222DB03020333
:10012E00FFEC2CFCEF33FFEE33FEED33FDED30E74D
:10013E00EB0203DAEF2BFFEE3AFEED39FDD0E0FBDA
:10014E0050130BBB0003020402ED13FDEE13FEEF82
:08015E0013FFEC13FC0203DAAD
:10016600EC4D6011E8497017ED33EC3304600DE493
:10017600FCFFFEFD22E933E8330470F80203F812AF
:1001860003C358046009E4CC2481500628500902B0
:1001960004022840030203FFC0E0EB4A7044B98022
:1001A60006D0E0FB0203EEEF4E701CBD8008EBFFAD
:1001B600EAFEE9FD80EBE98DF0A4FEE5F002024FD0
:1001C600E9CDF9EAFEEBFFEF89F0A4FCE5F0CE8974
:1001D600F0A42EFFE435F0CD89F0A42DFEE435F031
:1001E6008067EF4E7005BD80D780C3EF8BF0A4AC5F
:1001F600F0EE8BF0A42CFCE435F0F8EF8AF0A42C9A
:10020600E5F038FCE433CB8DF0A42CFCE5F03BF8AC
:10021600EE8AF0A42CFCE5F038F8E433CF89F0A49C
:100226002CFCE5F038CF3400CE89F0A42FFFE5F0A2
:100236003EFEE433C98DF0A42EFEE5F039CD8AF0FA
:10024600A42FFFE5F03EFEE43DFD33D0E0FB500772
:100256000BBB000F020402EC2CFCEF33FFEE33FE67
:06026600ED33FD0203DA96
:10026C00020402EC5D046005E8590470030203F813
:10027C001203C3580460F6EC4860F2EC7004FDFE07
:10028C00FF22C860DB2481C85009C3986002500665
:10029C000203FF9850CAF582E9294B4A7005AB82DC
:1002AC000203EE75F0007C1A7880C3EF9BEE9AED9A
:1002BC0099400DC3EF9BFFEE9AFEED99FDE842F0DD
:1002CC00DC23ACF0D0E0FFD0E0FED0E0FDAB822030
:1002DC00E7101BEB60BAEC2CFCEF33FFEE33FEEDBA
:1002EC0033FD0203DAE803F830E705C0F075F000DF
:1002FC00EF2FFFEE33FEED33FD40B830E7C280AA9E
:10030C0074F8CC6480CCC86480C8F58204604FC398
:10031C00EB9FF5F0EA9E42F0E99D42F0E89C45F037
:10032C00603C501DE5825FFFE582D313CB5BCBF4C1
:10033C002B5582FB50280ABA002409B900200880EA
:10034C001DE5825BFBE582D313CF5FCFF4C3132F84
:10035C005582FF50090EBE00050DBD00010CC3EB0C
:10036C009FF5F0EA9E42F0E99D42F0E89C45F06072
:09037C0007CC4820E701B3EC2294
:1003850075F020800E75F010800575F0087D007EF3
:10039500007F003392D530D503120511EC334010A0
:1003A500EF33FFEE33FEED33FDEC33FCD5F0ED22FC
:0E03B500E5F0247EA2D513CC92E7CDCEFF2238
:1003C300E9D2E7C933E833F892D5EDD2E7CD33EC80
:0703D30033FC5002B2D522F9
:1003DA00EC30E7100FBF000C0EBE00080DBD000484
:1003EA000BEB6014A2D5EB13FCED92E7FD2274FF30
:1003FA00FCFDFEFF22E480F8A2D574FF13FC7D8089
:03040A00E480EF9C
:100EC500020800E493A3F8E493A34003F68001F23B
:100ED50008DFF48029E493A3F85407240CC8C3332E
:100EE500C4540F4420C8834004F456800146F6DFFD
:100EF500E4800B010204081020408090000EE47E7F
:100F0500019360BCA3FF543F30E509541FFEE493F1
:100F1500A360010ECF54C025E060A840B8E493A3B8
:100F2500FAE493A3F8E493A3C8C582C8CAC583CAE3
:100F3500F0A3C8C582C8CAC583CADFE9DEE780BE9B
:0100160000E9
:10040D00C2D5EC30E709B2D5E4C39DFDE49CFCEE0A
:10041D0030E715B2D5E4C39FFFE49EFE120543C33A
:10042D00E49DFDE49CFC800312054330D507C3E435
:06043D009FFFE49EFE2279
:1004430075F008758200EF2FFFEE33FECD33CDCC70
:1004530033CCC58233C5829BED9AEC99E5829840F3
:100463000CF582EE9BFEED9AFDEC99FC0FD5F0D6D0
:10047300E4CEFBE4CDFAE4CCF9A88222B800C1B9FA
:100483000059BA002DEC8BF084CFCECDFCE5F0CB38
:10049300F97818EF2FFFEE33FEED33FDEC33FCEB71
:1004A30033FB10D703994004EB99FB0FD8E5E4F92C
:1004B300FA227818EF2FFFEE33FEED33FDEC33FC19
:1004C300C933C910D7059BE99A4007EC9BFCE99A0D
:1004D300F90FD8E0E4C9FAE4CCFB2275F010EF2F52
:1004E300FFEE33FEED33FDCC33CCC833C810D70752
:1004F3009BEC9AE899400AED9BFDEC9AFCE899F88D
:0E0503000FD5F0DAE4CDFBE4CCFAE4C8F9221F
:0E051100C3E49FFFE49EFEE49DFDE49CFC22FB
:10051F00EB9FF5F0EA9E42F0E99D42F0E89C45F032
:01052F0022A9
:10053000E8600FECC313FCED13FDEE13FEEF13FFA9
:03054000D8F122CD
:10054300BC000BBE0029EF8DF084FFADF022E4CC9C
:10055300F875F008EF2FFFEE33FEEC33FCEE9DEC65
:10056300984005FCEE9DFE0FD5F0E9E4CEFD22EDAB
:10057300F8F5F0EE8420D21CFEADF075F008EF2FF5
:10058300FFED33FD4007985006D5F0F222C398FDE6
:050593000FD5F0EA2283
:00000001FF
